:020000040000FA
:0230000080301E
:103030000235E302414FFFFFFFFFFFFFFFFFFFFFEE
:10304000FFFFFFFFFFFFFFFFFFFFFFFFFFFFFFFF90
:10305000FFFFFFFFFFFFFFFFFFFFFF02489BFFFF98
:10306000FFFFFFFFFFFFFFFFFFFFFFFFFFFFFFFF70
:10307000FFFFFFFFFFFFFFFFFFFFFFFFFFFFFFFF60
:10308000FFFFFF0241C2FFFFFFFFFFFFFFFFFFFF48
:10309000FFFFFFFFFFFFFFFFFFFFFF02484BFFFFA8
:1030A000FFFFFFFFFFFFFFFFFFFFFF024874FFFF6F
:1030B000FFFFFF02400301FF0000B40000280028CA
:1030C00000283075A000A000A000A00000080008A3
:1030D000E001F000100010001000100010001000BF
:1030E00050005000500010001000D00700000000F9
:1030F00000000F00010005003075070010000100FE
:1031000081FF0000FFBD4ADB4AC34AFF02020208FA
:10311000025000A0000000E80302A4820100004366
:1031200082029A820100009D0A028482010000B19D
:1031300002029A820100009E0A027C82010000C7FE
:1031400002029A820100009F0A022281010000C946
:1031500002029A82010000A00A026482080000CAEA
:1031600002029A82010000A10A026682010000A206
:103170000AFF0100FF2002A4820100004682029A99
:1031800082010000060B0268820000000000028E2F
:103190008203000017039F509F509F509F509F50E5
:1031A0009F509F509F509F509F509F509F509F50A7
:1031B0002D5345532753FFFF1232626174746572B9
:1031C000790002A4820100005882029A8201000064
:1031D000490B029C820100004A0B028E8203000010
:1031E000A8070292820100004B0B32817681708128
:1031F000020A00080942455457494E450CFF110187
:10320000FE01010000000000000201060503FFFFAF
:10321000E7FE09FF1101000000000000424554577D
:10322000494E45000000A3550000AF55B555BB55AC
:10323000020202020202020202010D00000010015D
:1032400002A4820100005282029A82010000C10B96
:10325000028682010000E907029A82010000C20B87
:10326000027E820100001581029A82010000C30BD8
:103270000276820100000781029A82010000C40BDD
:103280000274820100009380029A82010000C50B43
:10329000027282010000A580029A82010000C60B22
:1032A000027082010000B780029A82010000C70B01
:1032B000026E820100008180029A82010000C80B28
:1032C000026C82010000F980029A82010000C90BA1
:1032D000026A82010000CA0B01E803053F1002FFE9
:1032E000FFFFFFFFFFFFFFFFFFFFFFFFFFFFFFFFEE
:1032F000FFFFFFFF686973746F72792073746570E4
:10330000730002A4820100006182029A820100001F
:103310006F0C027A82010000700C029282010000A0
:10332000850C120568697420706F696E740002A4C0
:10333000820100005E82029A82010000B30C0282C8
:1033400082010000B40C028E820300000809029280
:1033500082010000B50C086D6F746F722072756E7B
:1033600000126D6F746F722074696D6520737461E3
:103370006D700002A4820100005B82029A8201004B
:1033800000E70C028A82020000100902928201000A
:1033900000E80C029A82010000F20C028C8201000B
:1033A000001109028E8203000015090292820100B9
:1033B00000F30CFF00126D6F74696F6E20737461FF
:1033C000746500126D6F74696F6E206E756D626545
:1033D000720002A4820100005582029A820100005C
:1033E000460D0296820100005D09028E82030000F4
:1033F0005E09029282010000470D029A82010000DC
:10340000540D0298820100006409028E82030000BC
:103410006709029282010000550D01307503020117
:103420000600000000000000000000000000000096
:1034300000000000000000000000000000FFFF0688
:1034400000800CE8031273797374656D20746573E2
:103450007431000873797374656D20746573743208
:103460000002A4820100004F82029A82010000D66D
:103470000D02A082010000DC09028E82030000F030
:1034800009029282010000D70D029A82010000E435
:103490000D02A282020000F609029282010000E5FC
:1034A0000D0A74696D65207365740002A4820100C1
:1034B000004C82029A82010000320E02AA820300AE
:1034C000000C0A029282010000330E0877656368DF
:1034D0006174207772697465002077656368617430
:1034E00020696E6469636174650002776563686171
:1034F0007420726561640002A482010000498202A6
:103500009A820100005C0E02B282020000140A02DC
:1035100092820100005D0E029A820100006A0E0292
:10352000B482010000280A028E820300003C0A02D5
:1035300092820100006B0E029A820100007B0E0253
:10354000B682010000420A0292820100007C0EE570
:10355000C754F84404F5C779012200000080FB122B
:10356000354FB900030235CDE479217808B800025F
:103570008004F709D8FCE479297802B800028004B5
:10358000F709D8FCE490028078C979088002F0A39A
:10359000D8FCD9FA781C9030B67A01BA00028007BC
:1035A000E493A3F608DAF97A487B0A9030B7789961
:1035B00079058015E493A3AD82AE838A828B83F074
:1035C000A3AA82AB838D828E83D8E9D9E77582CE98
:1035D00075839374041235F575825A7583357400BA
:1035E0001235F575D00075813F751A80751B02750F
:1035F0009F0002355FC09FF59FE473D09F22D08368
:10360000D082C09FE493C0E0740193C0E074029341
:10361000F59F22E76670100809E766700A0809E757
:103620006670040809E76622E066701008A3E06689
:10363000700A08A3E066700408A3E06622C3E79658
:103640000809E7960809E7960809E79622C3E09675
:1036500008A3E09608A3E09608A3E09622C00AC358
:10366000E096F50A08A3E096420A08A3E096420A0B
:1036700008A3E096450A7001D3D00A22080808EA98
:10368000C0E0EBC0E086F0E7A4FA180986F0E7A4F2
:103690002AFA180986F0E7A42AFA180986F0E7A49E
:1036A0002AFA1986F0E7A4FBE5F02AFA190886F051
:1036B000E7A42BFBE5F03AFA190886F0E7A42BFB08
:1036C000E5F03AFA18180986F0E7A4C5F02BFBE4F8
:1036D0003AFA1908E7C5F0C6A426F6E5F03BFBE484
:1036E0003AFA1886F0E7A4F6E5F00826F6E43B0877
:1036F000F6E43A08F6D0E0FBD0E0FA22E4CFC0E0EE
:10370000E4CEC0E0E4CDC0E0E4CCC0E075F020E65B
:1037100026F608E633F608E633F608E633F6181818
:1037200018EC33FCED33FDEE33FEEF33FFC3EC97C3
:1037300009ED9709EE9709EF97191919400FFFEC5A
:1037400097FC09ED97FD09EE97FE191906D5F0BF14
:10375000ECF709EDF709EEF709EFF7191919D0E0C1
:10376000FCD0E0FDD0E0FED0E0FF226017080808A2
:10377000C6A2E713C618C613C618C613C618C613C2
:10378000C6D5E0E9226016080808C6C313C618C6E5
:1037900013C618C613C618C613C6D5E0EA227009A8
:1037A000080808226016181818C6C333C608C6339E
:1037B000C608C633C608C633C6D5E0EA22E627F6F1
:1037C0000809E637F60809E637F60809E637F6226B
:1037D000E026F608A3E036F608A3E036F608A3E0F4
:1037E00036F622E026F008A3E036F008A3E036F033
:1037F00008A3E036F022C3E697F60809E697F60834
:1038000009E697F60809E697F622C3E0C696F60899
:10381000A3E0C696F608A3E0C696F608A3E0C6960F
:10382000F622C3E096F008A3E096F008A3E096F035
:1038300008A3E096F022E056F608A3E056F608A3A7
:10384000E056F608A3E056F622E056F008A3E0564C
:10385000F008A3E056F008A3E056F022E647F60889
:1038600009E647F60809E647F60809E647F622E6BC
:1038700067F60809E667F60809E667F60809E667E5
:10388000F622E0F608A3E0F608A3E0F608A3E0F6C7
:1038900022E6F008A3E6F008A3E6F008A3E6F0228B
:1038A000E0FAA3E0FBA3E0FCA3E0FD22EAF0A3EB37
:1038B000F0A3ECF0A3EDF022E0F8A3E0F9A3E0FA26
:1038C000A3E0FB22E8F0A3E9F0A3EAF0A3EBF022E7
:1038D000CAC0E0E6F0A308DAFAD0E0FA22CAC0E0F3
:1038E000E0A3C582CCC582C583CDC583F0A3C582C4
:1038F000CCC582C583CDC583DAE6D0E0CA22C3E455
:1039000098F8E499F912393F8026C3E49AFAE49BC7
:10391000FBE920E7E912393FE498F8E499F922C37A
:10392000E498F8E499F912393FE498F8E499F9C376
:10393000E49AFAE49BFB22EB20E7CFE920E7E0B929
:103940000010BB0008E88AF084F8AAF022E4FBC863
:10395000FA22EB70227B10C833C8C933C933500731
:10396000C39AC3DBF280069A50012ADBEAC833F41B
:10397000C8C933F4C9FA2275F008E4C833C8C9339A
:10398000C933C99AC99B5004C92AC93BD5F0ECFB7D
:10399000C833F4C8E4C9FA22600D08C6A2E713C60A
:1039A00018C613C6D5E0F322600C08C6C313C618A8
:1039B000C613C6D5E0F422700422600D18C6C333C6
:1039C000C608C633C6D5E0F41822251A10AF08F58C
:1039D0001A400C151B8008F51A4002151BD2AF22A5
:1039E00000C0D0251A10AF08F51A500C051B80082E
:1039F000F51A5002051BD2AFD0D022251AF582103D
:103A0000AF08F51A400C151B8008F51A4002151B6B
:103A1000D2AF851B8322251AF582E4351BF583225C
:103A2000251AF8E4351BF922251AFAE4351BFB2286
:103A3000251AFCE4351BFD22E473251AC582C0E07B
:103A4000E51B34FFC583C0E0E51AC3958224F81056
:103A5000AF0885831B85821A800885831B85821A9F
:103A6000D2AFCEF0A3E520F0A3780AE608F0A3DEFB
:103A7000FAEFF0A3E58124FAF8E608F0A3E608F0EF
:103A8000A3E608F0A30808E608F0A3E608F0A315EB
:103A9000811581D0E0FED0E0F8158115811581E80F
:103AA000C0E0EEC0E022251AC582C0E0E51B34FF6D
:103AB000C583C0E0E51AC3958224F910AF08858359
:103AC0001B85821A800885831B85821AD2AFCEF0AF
:103AD000A3E520F0A3780AE608F0A3DEFAEFF0A34E
:103AE000E58124FBF8E608F0A3E608F0A30808E661
:103AF00008F0A3E608F0A315811581D0E0FED0E020
:103B0000F815811581E8C0E0EEC0E022851B8385B1
:103B10001A82E0A3FEE0A3F520780AE0A3F608DF0E
:103B2000FAE0A3FFE0A3C0E0E0A3C0E0E0A3C0E0B0
:103B3000E0A3C0E0E0A3C0E010AF0885821A85834F
:103B40001B800885821A85831BD2AFD083D0820266
:103B500035FB851B83851A82E0A3FEE0A3F5207860
:103B60000AE0A3F608DFFAE0A3FFE0A3C0E0E0A3C9
:103B7000C0E0E0A3C0E0E0A3C0E010AF0885821A77
:103B800085831B800885821A85831BD2AFD083D0A2
:103B90008222C0D0251AC582C0E0E51B34FFC58350
:103BA000C0E0E51AC3958224F310AF0885831B8516
:103BB000821A800885831B85821AD2AFC8F0A3E9D8
:103BC000F0A3EAF0A3EBF0A3790AE709F0A3D8FA8F
:103BD000ECF0A3EDF0A3EEF0A3EFF0A3D0E0F0A3A0
:103BE000D0E0F0A3D0E0F0A3E520F0A3E5F0F0A34F
:103BF00022851B83851A82E0C0E0A3E0F9A3E0FAE6
:103C0000A3E0FBA3780AE0F608A3DFFAE0FCA3E058
:103C1000FDA3E0FEA3E0FFA3E0C0E0A3E0C0E0A3BB
:103C2000E0F5D0A3E0F520A3E0A3F5F010AF088500
:103C3000831B85821A800885831B85821AD2AFD0A8
:103C400082D083D0E0F8D0E0327404800674028021
:103C5000027401C0E0F4041239FBD0E01238D02223
:103C60007404800474028000CCC0E0EDC0E0E51A6A
:103C7000C39CCCAD1B50011D10AF068C1A8D1B8050
:103C8000068C1A8D1BD2AF1238DDD0E0FDD0E0FCDF
:103C900022D083D082E9C0E0E493A3C386F0C5F0CC
:103CA00095F0F908E493A386F0C5F095F0700BE465
:103CB00093A3C3994005E9048002A3E475F002A42C
:103CC0002582F582E5F03583F583D0E0F9E493A30E
:103CD000C0E0E493C0E022D083D082ECC0E0EDC02D
:103CE000E0E493A3FCE493A3FDED4C600D123D23AF
:103CF000EC24FFFCED34FFFD80EFE493A3FCE493A0
:103D0000A3FDED4C600D123D62EC24FFFCED34FF91
:103D1000FD80EFD0E0FDD0E0FCE493A3C0E0E493AD
:103D2000C0E022C0E0C3E493960874019396184063
:103D30000FE4936670080874019366187000701998
:103D4000A3A3C3E49396087401939618A3A3400D0C
:103D5000D0E0D0E0D0E0023D13A3A3A3A3A3A3D05F
:103D6000E022C0E0C0F088F0E493667008087401B7
:103D70009366187000A8F0A3A3700BD0F0D0E0D029
:103D8000E0D0E0023D13A3A3D0F0D0E022FFFFFF7C
:103D900074F5123AA6EAFEEBFFEE2434F8EF340095
:103DA000F9880A890BEE2435F582EF3400F583E0BB
:103DB000F8EE2437F582EF3400F583E0F50CEC855E
:103DC0000CF0A4FCAAF0850CF0EDA42AFDE82CF878
:103DD000E43DF97A257B0012393FEA850A82850B9A
:103DE00083F05407F87401B800028004C333D8FC90
:103DF000C0E0E0131313541FF8EE28F8EF3400F975
:103E0000E8245DF582E93400F583D0E0F8E05860FD
:103E100008EE2434F582EF801EEE2436F582EF346E
:103E200000F583E0F5F0EA84A8F0EE28F8EF34001E
:103E3000F9E82438F582E93400F583E0F97F0402DB
:103E40003B5274F5123AA6EAFEEBFFEE2434F582FB
:103E5000EF3400F583E0C0E0EE2435F582EF340066
:103E6000F583D0E0F08E828F83A3A3A3A3A3A3A3A3
:103E7000C082C0838E828F83A3A3A3A3A3E0F8A3F1
:103E8000E0F9D083D082E0C398F50AA3E099F50B5E
:103E9000EE2480F582EF3400F583E064017069EE72
:103EA0002481F582EF3400F583E0F8A3E0F98E82F7
:103EB0008F83A3A3A3A3A3A3A3E0FCA3E0FD8E820F
:103EC0008F83A3A3A3A3A3E0FAA3E0FBC3EA9CEB25
:103ED0009D5027C3EC98ED99402EC3EA98EB99507A
:103EE000277CFC7D04EEFAEFFB124FFDEE2480F5FB
:103EF00082EF3400F583E4F0800EC3EA98EB99403A
:103F0000E0C3EC98ED9950D9EE2434F8EF3400F981
:103F1000E8FCE9FDEE2435F582EF3400F583E0F8A6
:103F2000EE2437F582EF3400F583E0F50CE50A85E1
:103F30000CF0A4F50AAAF0850CF0E50BA42AF50B09
:103F4000E8250AF8E4350BF97A257B0012393FEAB7
:103F50008C828D83F05407F87401B800028004C38A
:103F600033D8FCC0E0E0131313541FF8EE28F8EF29
:103F70003400F9E8245DF582E93400F583D0E0F8F7
:103F8000E0586008EE2434F582EF801EEE2436F50A
:103F900082EF3400F583E0F5F0EA84A8F0EE28F82B
:103FA000EF3400F9E82438F582E93400F583E0F9CC
:103FB00012483D023E3DC082C083851A82851B8324
:103FC000E0F8A3E0F9C3EA9CEB9D5012C3EC98ED36
:103FD000994019C3EA98EB99501279018010C3EA0D
:103FE00098EB9940F5C3EC98ED9950EE7900D083A9
:103FF000D08222EAC39CFAEB9DFB22FF85218785B4
:1040000022C622C0E0C0D0E8C0E0E9C0E0EAC0E0DB
:10401000EBC0E0ECC0E0EDC0E0C00AC00BC00CC0DB
:104020000DC082C083C0F0759B00906182E0A2E663
:1040300040030240E1E591A2E640030240E17591B0
:10404000BF9003C1E06405700812513512514180E0
:104050000312513B75210012519BE99003C2F07984
:104060000012518F124F737A017B009003C0E0F968
:1040700012545F907803E06442600302412A900585
:104080005EE014F0600302412AC2AF12408E007855
:104090002AD0E0F618D0E0F6E59F5407F9700590B5
:1040A00081F380039081F7780A123882E9C4C0E076
:1040B0007829E6550AF50A08E6550BF50B740B78D6
:1040C0000A1239A8D0E0250AF8906270E0A2E74011
:1040D000F8E8C333906272F0906270E0D2E0F08052
:1040E00049E0A2E55024E591A2E5501E7591DF90CC
:1040F00003C1E0640D70139003E3E004F0642870E2
:1041000002E4F07A00E0F912520D906181E0A2E33E
:104110005009E5E9A2E3500375E9F7A3E0A2E750EF
:1041200009E591A2E7500375917FD0F0D083D0824A
:10413000D00DD00CD00BD00AD0E0FDD0E0FCD0E008
:10414000FBD0E0FAD0E0F9D0E0F8D0D0D0E032C037
:10415000E0C0D0C082C083906183E0A2E05009E556
:10416000BFA2E0500375BFFEE0A2E15009E5BFA287
:10417000E1500375BFFDE0A2E25009E5BFA2E250A5
:104180000375BFFBE0A2E35009E5BFA2E35003754E
:10419000BFF7E0A2E45009E5BFA2E4500375BFEF0A
:1041A000E0A2E55009E5BFA2E5500375BFDFE0A23C
:1041B000E65009E5BFA2E6500375BFBFD083D082A9
:1041C0008088C0E0C0D0E8C0E0E9C0E0EAC0E0EB31
:1041D000C0E0ECC0E0EDC0E0C0F0E5A7A2E6500F03
:1041E000E5A1A2E6500953A7BF75A1BF124227E57A
:1041F000A7A2E5500CE5A1A2E5500653A7DF75A1E3
:10420000DFE5A7A2E15009E5A1A2E1500375A1FDF8
:10421000E5A7A2E2500CE5A1A2E2500653A7FB7568
:10422000A1FBD0F002413874F8123AA67521019032
:1042300003C1E0640670151250C98A828B83A3A360
:10424000A3A3A3A3E0FAA3E0FB125123A2AFE4339C
:10425000FED2AF9003C7E0640170187A207B009013
:1042600003C0E0F91254E37A207B009003C0E0F928
:10427000125465906182E0D2E6F090055DE0602125
:1042800085C62280169003C6E064017008E5C65416
:10429000F84405F5C653BEFC123FFC74016521606D
:1042A000E4EEA2E092AF7F01023B52FF8E238F2407
:1042B000858228858327851A82851B83E0CEA3E02B
:1042C000CF852882852783EBC9EAC8EDCBECCA7578
:1042D000F010C3E833C8E933C9EA33CAEB33CBC3C0
:1042E000EA9EF526EB9FF525B35004AB25AA26ECF4
:1042F00033CCED33CDD5F0DAAE23AF242274EB12FC
:104300003AA674FA1239CA8A0A8B0B8C168D17904A
:1043100003C1E024F7C3940550069081BB02445FBB
:104320001250C98A0C8B0DAE0CAF0DEE4F7003020C
:10433000445CAC0AAD0B851A82851B83AA82AB83D1
:104340001251538E828F83A3A3780A1238829082EF
:104350003B780A123836851A82851B83780E12380C
:104360008290823B780E123836780A790E12363DEA
:10437000501F780A790E1237F69081D3780A1236D8
:104380005D4047850A12850B13850C14850D158039
:1043900041850E12850F1385101485111578127939
:1043A0000A1237F69081D3781212365D501C7512BE
:1043B000007513007514007515017812790E123707
:1043C000F67812790A1237BD80089081BB781212F4
:1043D00038827409781212379E9081CF780A123889
:1043E000827812790A1236FC8E828F83A3A3A3A34C
:1043F000A3A3E0F8A3E0F97AD07B0312393F880A3F
:10440000890BE4F50CF50D7812790A1237BD7404A6
:10441000123A16E0F8A3E0F97AD07B0312393FE8AC
:10442000FA8A0AE4F50B7812790A12363D500778B9
:1044300012790A1237F69003C1E06408600AE0645A
:10444000066005E06405701C9081CB781212365D21
:10445000501290819378121237D08008908233786E
:104460001212388285168285178378121238917459
:10447000061239E07F0E023B5274F7123AA612512F
:104480006590055BE064017010906245E4F0A3F074
:1044900053F4F343FE0C5390F3125111E5C65480CC
:1044A0004449F5C6E59E547F644970F8906185746F
:1044B0000FF0900559E0F47002A3E0604E90055AA9
:1044C000E0600814601B14602E8040750A01750BB3
:1044D00000900559E0780A1239B7E50AF452808055
:1044E0002A750A01750B00900559E0780A1239B750
:1044F000E50AF452908014750A01750B0090055975
:10450000E0780A1239B7E50AF452A079007F020276
:104510003B5274F7123AA6E9FEEAFF74016E700C82
:104520007A807B009003C0E0F912545F905A40E417
:1045300093F46008E493F9124F67800953C680E54D
:104540009E547F70FA12511790055BE0640170036E
:10455000124F7F900559E0F47002A3E0604B900584
:104560005AE0600814601A14602C803D750A0175C9
:104570000B00900559E0780A1239B7E50A428080AD
:1045800028750A01750B00900559E0780A1239B7B1
:10459000E50A42908013750A01750B00900559E0F9
:1045A000780A1239B7E50A42A01251651250C98A39
:1045B0000A8B0BA80AA90BE8496015E5E170FCE835
:1045C0002414F582E93400F583E0F46003E0F5E1BA
:1045D00074016F700A7A019003C0E0F91254B302BB
:1045E000450D74F1123AA68A0A8B0B8C0C8D0D7452
:1045F0000F123A16780E12388290823B780A1238DF
:104600003690823B780E123836780A790E12363D93
:104610005015780A790E1237F69081D3780A12363F
:104620005D401579018013780E790A1237F6908172
:10463000D3780E12365D40EB79007F08023B52744E
:10464000ED123AA68A0A8B0B8C0C8D0D7413123A5C
:1046500016780E12388290823B780A123836908291
:104660003B780E123836780E790A12363D401178B2
:104670000A790E1237F6AA0AAB0BAC0CAD0D8022EC
:104680007512007513007514007515017812790EF6
:104690001237F67812790A1237BDAA12AB13AC148E
:1046A000AD157F0C023B5290823B780A1238828A09
:1046B000828B83780A1238497F04023B5274F512C8
:1046C0003AA68C828D83780A1238828A828B83780C
:1046D0000A123822EA2404F8EB3400F98C828D8324
:1046E000A3A3A3A3E0FCA3E0FD88828983C3E09C8D
:1046F000F0A3E09DF088828983C3E09420A3E09436
:104700004E40229081E3780A1238828A828B837825
:104710000A1237E38A828B83A3A3A3A3E02420F0A9
:10472000A3E0344EF0808074F5123AA6E9FE9005BD
:1047300013E0FAA3E0FBEEC333F8E433F974E9289D
:10474000F582748039F583E02AF50AA3E03BF50B86
:10475000780A123C4D90821F1238A01242AC7402AB
:104760001239E08A0A8B0B8C0C8D0D7410780A12AA
:104770003785AA0AAB0B7F04023B5274F1123AA6AA
:104780008A0E8B0F8C108D11740F123A16E0FAA35B
:10479000E0FB7411123A16E0F50AA3E0F50B74136E
:1047A000123A16E0FEA3E0FF780A123C4DEA24011B
:1047B000F50AEB3400F50BE4F50CF50D780E790AEB
:1047C00012367C908197780A123882780E790A1214
:1047D000367CAA0EAB0FAC10AD111242AC740212B3
:1047E00039E08B0BEA450B60047A0180027A00EC19
:1047F0002AFCED3400FDECF8EDF97A717B021239F8
:104800003F880A890BE4F50CF50D8E828F83780AB8
:10481000123891ECF8EDF97A717B0212393F8A0A6D
:104820008B0B7405780A1239B78E828F83A3A3A3EA
:10483000A3E50AF0A3E50BF07F08023B52C082C05B
:1048400083E9906000F0D083D08222C0E074F2123D
:104850003B92A2AFE433FED2AF125837E589A2E70C
:10486000500375897FC2C5751C00EEA2E092AF7F30
:1048700001023BF1C0E074F2123B92A2AFE433FEBE
:10488000D2AF125831E58AA2E65003758ABFE58A95
:10489000A2E75003758A7FC2EB80CCC0E0C0D0E8AD
:1048A000C0E0E9C0E0E5A8D2AFC2C7751C00A2E72E
:1048B000A2E792AFD0E0F9D0E0F8D0D0D0E0321249
:1048C00035FEFD87041235FE1488041235FE438838
:1048D000041235FE7C88041235FEA488041235FECD
:1048E000D288041235FEE988041235FE00890412CC
:1048F00035FE1689041235FE3D89041235FE5089B5
:10490000041235FE6689041235FE7989041235FEDB
:104910009E89041235FE0080031235FEFF800312CB
:1049200035FE3481031235FE5581031235FE658153
:10493000031235FE8681031235FE9282031235FE84
:104940005F83031235FED283031235FE58840312AF
:1049500035FE9B84031235FED284031235FE588542
:10496000031235FE2A86031235FE8886031235FEB1
:10497000A086031235FE1A87031235FE1D87031227
:1049800035FE2087031235FEC787031235FEDF8709
:10499000031235FE0F88031235FE2F88031235FEF1
:1049A0001D89031235FED389031235FE8AC4031212
:1049B00035FEB2C4031235FEE0C4031235FE17C53E
:1049C000031235FE7FC5031235FEC8C5031235FE3E
:1049D00013C6031235FE51C6031235FE8EC60312EE
:1049E00035FEBCC6031235FE63C7031235FE6DC724
:1049F000031235FE7AC7031235FEADC7031235FE2A
:104A00006FC8031235FE7BC8031235FE93C803122C
:104A100035FE9DC8031235FE0DFF021235FE1BFF49
:104A2000021235FE33FF021235FE4BFF021235FE35
:104A30000080021235FE9E80021235FE168102129F
:104A400035FE2B82021235FE6582021235FE0E8380
:104A5000021235FEE383021235FE4785021235FE4F
:104A60009E85021235FE2586021235FE0C87021243
:104A700035FE5987021235FEE787021235FE0B8894
:104A8000021235FEE089021235FE218A021235FE3D
:104A9000438A021235FEC48A021235FEAE8B021220
:104AA00035FE748C021235FEF6A9031235FEC8AA33
:104AB000031235FE71AB031235FEB4AB031235FEA3
:104AC00041AC031235FECDAC031235FEAEAD031280
:104AD00035FEDDAD031235FED9AE031235FE21AF32
:104AE000031235FE23B0031235FE67B0031235FE04
:104AF0008DB0031235FE6992041235FE46DA0312B8
:104B000035FE5CDA031235FE82DA031235FEAADBCB
:104B1000031235FEB4DB031235FE0DDD031235FE44
:104B20000DDE031235FE02B1031235FE37B2031259
:104B300035FE6AB2031235FEB4B2031235FE72B40A
:104B4000031235FE76E4011235FED9E4011235FE7A
:104B50001EE6011235FE2EE6011235FE51E6011267
:104B600035FE9CE6011235FE41E7011235FE37E8BD
:104B7000011235FE01E9011235FE79EA011235FE16
:104B8000BBEA011235FE59EB011235FEA6EB01120C
:104B900035FECCEB011235FEBAED011235FEBFED4C
:104BA000011235FEA0EF011235FEF4EF011235FEC1
:104BB00056F0011235FE7EF0011235FE22F101128F
:104BC00035FEE4F1011235FE15F2011235FE18F240
:104BD000011235FE60F2011235FEA2F2011235FE1D
:104BE00009F3011235FE50F4031235FE63F403128B
:104BF00035FE7CF4031235FEC7F4031235FEA2F530
:104C0000031235FE31F6031235FE7CF6031235FE33
:104C1000445A001235FE505A001235FE895A0012CD
:104C200035FECE5A001235FE855B001235FE0B5C58
:104C3000001235FE705C001235FE9C5C001235FEE1
:104C4000D55C001235FEE95E001235FEC56000122B
:104C500035FEB062001235FEE763001235FE47668E
:104C6000001235FE3367001235FE7968001235FEFA
:104C70008669001235FEA369001235FEDB69001259
:104C800035FEF569001235FE5D6A001235FEF76EDD
:104C9000001235FE986F001235FEE96F001235FEE6
:104CA0001070001235FE5E70001235FE7C7000122E
:104CB00035FED070001235FEA971001235FE30733A
:104CC000001235FEB873001235FEE0BF031235FE48
:104CD000EABF031235FEB5C0031235FED0C0031281
:104CE00035FEF6C0031235FE3AC1031235FE72C11D
:104CF000031235FE9BC1031235FE14C2031235FEAA
:104D000029C2031235FE3EC2031235FE75C20312DC
:104D100035FE89C2031235FEBAC2031235FEF4C253
:104D2000031235FE20C3031235FE76C3031235FE8F
:104D3000CAC3031235FE13C4031235FE3DC4031269
:104D400035FE62C4031235FE5AD6031235FE24D74F
:104D5000031235FE07D8031235FE7DD8031235FE47
:104D6000BFD8031235FEECD9031235FE29D4021246
:104D700035FE52D4021235FE6BD4021235FEB0D588
:104D8000021235FE8ED6021235FEADD6021235FE67
:104D90003AD7021235FE7DD7021235FECAD802126A
:104DA00035FE69D9021235FEE8DB021235FE7FDCE2
:104DB000021235FE53DD021235FE35DE021235FEDB
:104DC000A1DF021235FE34E0021235FE158E041208
:104DD00035FE7E8E041235FED28E041235FEF98E1B
:104DE000041235FEB9CD031235FE26CE031235FE70
:104DF00071CE031235FE66CF031235FE62D0031268
:104E000035FE4CD1031235FE3E8A031235FE808AF0
:104E1000031235FE5A8B031235FE338C031235FE16
:104E20002E8D031235FE0D8E031235FE798E031280
:104E300035FE408F031235FEAB8F031235FE129004
:104E4000031235FE3D90031235FEAE90031235FE7F
:104E50004191031235FEAA91031235FEBF91031250
:104E600035FE0792031235FE2092031235FE85921D
:104E7000031235FE8892031235FEAFE4031235FEAD
:104E8000D7E4031235FE15E5031235FED3E5031210
:104E900035FE3EE6031235FE5AE6031235FE82E683
:104EA000031235FEB2E6031235FEC1E6031235FEEB
:104EB0003BE7031235FE61E7031235FE279D021220
:104EC00035FE049F021235FEFFA0021235FED2A16C
:104ED000021235FE1DA2021235FE68A2021235FE34
:104EE0007AA2021235FEBAA2021235FEEFA2021217
:104EF00035FE3BA3021235FE6AA3021235FE8DA3D6
:104F0000021235FEDAA3021235FE63A4021235FE48
:104F100070A6021235FE5BA8021235FE9EA8021290
:104F200035FE03AA021235FE44AA021235FEB7AAC4
:104F3000021235FE03AB021235FE2EAB021235FE15
:104F400029ED021235FE54ED021235FE3BF4021239
:104F500035FE5FF6021235FE1AF8021235FE77F9B9
:104F6000021235FE0080011235FE9780011235FED7
:104F7000C480011235FE0A81011235FE49820112F8
:104F800035FEE083011235FE5A84011235FE758428
:104F9000011235FEEA84011235FE1986011235FE32
:104FA0007487011235FE7688011235FED38901120D
:104FB00035FEEC89011235FE498A011235FE2B8B34
:104FC000011235FE5E8B011235FECE8B011235FECD
:104FD000488C011235FE978C011235FE638D01124B
:104FE00035FE688E011235FE478F011235FED28FD5
:104FF000011235FE4090011235FEB490011235FECB
:10500000DD90011235FE9C91011235FE16930112BE
:1050100035FE3393011235FE5293011235FEE393B0
:10502000011235FE0894011235FE3094011235FE4E
:10503000AB94011235FE0595011235FE5996011209
:1050400035FE1697011235FEE997011235FE58AB71
:10505000021235FEA8AB021235FEB4AB021235FEC9
:1050600091AC021235FEC1AC021235FEF9AC02124F
:1050700035FE78AD021235FEB0AD021235FE02AE3D
:10508000021235FE3FAE021235FE64B0021235FE4A
:1050900090B2021235FE8BB4021235FE66B60212D1
:1050A00035FEF3FF011235FE5CAE011235FEA6AEF1
:1050B000011235FE85B4011235FE06B6011235FE29
:1050C00065BC011235FE60BD011235FE9DBD0112A9
:1050D00035FEC0BD011235FE02BE011235FE0BBE0B
:1050E000011235FE15BE011235FE01BF011235FE5B
:1050F000F5BF011235FE1798011235FE8FA201127D
:1051000035FE95A2011235FEA1A9011235FE17DE6A
:10511000031235FEADDE031235FEC3DE031235FE8B
:105120003DDF031235FE93DF031235FED1DF03129C
:1051300035FE2EE0031235FEABE0031235FEB4E07F
:10514000031235FEC0E0031235FED3E0031235FE34
:105150000FE1031235FE25E1031235FE84E103124F
:1051600035FE0ED2031235FE1BD2031235FE35D2A8
:10517000031235FE74D2031235FEB2D2031235FE8D
:1051800017D3031235FE2CD3031235FE37D3031287
:1051900035FE44D3031235FE5BD3031235FE69D3CB
:1051A000031235FE74D3031235FE80D3031235FE8D
:1051B0008FD3031235FE9AD3031235FEBDD30312EB
:1051C00035FE66D4031235FE76D4031235FE90D434
:1051D000031235FEADD4031235FEC9D4031235FED9
:1051E000EED4031235FEF8D4031235FE0CD50312AB
:1051F00035FE2BD5031235FE8CD5031235FE92D524
:10520000031235FE98D5031235FE9ED5031235FEE6
:10521000AAD5031235FEDDD5031235FE2CB90212D4
:1052200035FEAEB9021235FE57BA021235FE9FBBEB
:10523000021235FEADBD021235FE93BE021235FEDE
:10524000C8BE021235FEEABE021235FE93BF02123C
:1052500035FE63C1021235FE8CC1021235FE04C256
:10526000021235FE36C2021235FE43C2021235FE6C
:105270008EC2021235FEB2C2021235FE03C5021200
:1052800035FE0DC6021235FE69C6021235FEA98E24
:10529000021235FEBA8F021235FE9E90021235FEC2
:1052A000A890021235FECA90021235FED690021264
:1052B00035FE7A92021235FEA792021235FEBD9398
:1052C000021235FE1294021235FE6195021235FE6D
:1052D0003696021235FE9296021235FEFD960212A5
:1052E00035FE3297021235FE7597021235FE3F9A4F
:1052F000021235FE579A021235FEE89A021235FE66
:10530000F69A021235FE439B021235FE519B0212A1
:1053100035FEBD9B021235FE389C021235FE8F9C75
:10532000021235FE1F74001235FE4174001235FE64
:105330005276001235FE1179001235FE3B7A0012CA
:1053400035FEF97A001235FEE57B001235FE448603
:10535000041235FE6986041235FEDF86041235FE1E
:10536000D9A2031235FEE2A2031235FEEBA203120C
:1053700035FEC3A3031235FE74A5031235FEA4A5A2
:10538000031235FECFA5031235FEFFA5031235FE2D
:105390002AA6031235FE5EA6031235FE8AA6031264
:1053A00035FECDA6031235FEF8A6031235FE3FA743
:1053B000031235FE94A7031235FED6A7031235FE5D
:1053C00030A8031235FE5BA8031235FEAAA803120B
:1053D00035FEDAA8031235FE05A9031235FE33A9FE
:1053E000031235FE56A9031235FEF292041235FE61
:1053F0001E93041235FE4B93041235FE559304128E
:1054000035FE6593041235FE9AF9021235FEA4F9B1
:10541000021235FEE2F9021235FE2BFA021235FEB7
:1054200065FA021235FEBFFA021235FEE0FA0212E8
:1054300035FEE9FA021235FE3AFB021235FE63FB35
:10544000021235FE6DFB021235FED9FB021235FE4B
:1054500067FC021235FEB5FC021235FEEBFC0212AF
:1054600035FE72FD021235FEB2FD021235FEEAFD76
:10547000021235FEFCFD021235FE1BFE021235FE45
:1054800024FE021235FEE3FE021235FE2A8F0412BC
:1054900035FED8FA031235FE0EFB031235FE44FB2F
:1054A000031235FE9DFC031235FE3D7F001235FED2
:1054B000537F001235FE5D7F001235FEA77F00127C
:1054C00035FE32C9031235FE4BC9031235FEEFC952
:1054D000031235FE2FCA031235FE48CA031235FEE9
:1054E0007CCA031235FEC9CA031235FEFDCA031277
:1054F00035FE3FCB031235FE3FCD031235FEACCD5A
:10550000031235FE6F93041235FE2490041235FE0B
:105510004D90041235FE7690041235FE8E900412E2
:1055200035FED090041235FED3F3011235FE78F427
:10553000011235FE84F4011235FE93F4011235FE9A
:10554000E9F4011235FE4FF5011235FE0DF6011298
:1055500035FE7DF7011235FE45F8011235FE71F971
:10556000011235FE86F9011235FE05FD011235FEE8
:105570007AFD011235FEF2FD011235FEB0890412EA
:1055800035FEF589041235FE498A041235FEC78AB4
:10559000041235FE268B041235FE6BD4011235FE43
:1055A000A5D6011235FE38D8011235FE5BD901129D
:1055B00035FEA9D9011235FED4D9011235FEDED946
:1055C000011235FE8EDA011235FEA8DC011235FE1D
:1055D000C8DC011235FECEDE011235FEEADE011214
:1055E00035FEBBE0011235FEE8E0011235FE9EE11A
:1055F000011235FEB4E1031235FED9E1031235FE86
:1056000005E2031235FEDC9A031235FEEA9A031214
:1056100035FEC19C031235FE579D031235FE879D52
:10562000031235FEB89D031235FE569E031235FE59
:10563000609E031235FE809E031235FE2E9F0312DC
:1056400035FE439F031235FE4B9F031235FE779FB5
:10565000031235FEF89F031235FEB7A0031235FE84
:10566000F3A0031235FE07A1031235FE42A1031277
:1056700035FE55A1031235FE6CA1031235FE2AA298
:10568000031235FE2DA2031235FE3AA2031235FE97
:10569000A9A2031235FEABE0021235FED8E00212D9
:1056A00035FE8CE1021235FEDDE1021235FE20E30B
:1056B000021235FE93E5021235FE61E6021235FE56
:1056C00064E6021235FEE0E6021235FE30E8021210
:1056D00035FEE8EA021235FEF5EA021235FED6EB97
:1056E000021235FED9EB021235FE0AED021235FE2A
:1056F00028B6031235FE8AB7031235FE34B90312F9
:1057000035FECDB9031235FE2694041235FE0DC2C6
:10571000011235FEE9C3011235FEA0C5011235FEA6
:1057200092C6011235FE17C7011235FE8FC701124E
:1057300035FEB8C7011235FE37CB011235FEABCBB3
:10574000011235FE9CCC011235FED6CC011235FE7D
:1057500016CD011235FE49CE011235FE9CCE011246
:1057600035FEE5CE011235FE57CF011235FE89CF49
:10577000011235FEA1CF011235FE92D0011235FE85
:10578000A2D0011235FE3ED2011235FE55D20112D1
:1057900035FE87D2011235FE2CD4011235FEFDEC08
:1057A000031235FE69EE031235FE98EE031235FE44
:1057B000BEEE031235FEE5EE031235FE3AEF03129C
:1057C00035FEAD91041235FEBE91041235FE5E9297
:1057D000041235FEF37F001235FEE4FF021235FE9F
:1057E000E990041235FEF990041235FE119104126D
:1057F00035FEA791041235FEEFFE011235FE74FF4F
:10580000011235FEDAFF011235FE8784041235FEDF
:10581000B084041235FE9E85041235FE37860412CC
:1058200035FED68C041235FE018D041235FE768DC0
:10583000041235FECE8D041235FEFD8D041235FEA8
:105840002BBB031235FE4BBB031235FEC4BB031248
:1058500035FE9DBC031235FE5BBF031235FEF87F9B
:10586000001235FEA6F6031235FE1EF8031235FEB1
:105870007FF8031235FEC5F8031235FEC5FE03128C
:1058800035FEF1FE031235FE25FF031235FE50FFF3
:10589000031235FEE1FF031235FEBB82041235FE12
:1058A0000083041235FE5483041235FE7183041202
:1058B00035FEEF83041235FE4E84041235FEF3F1FB
:1058C000031235FE38F2031235FE55F2031235FE8F
:1058D000B3F2031235FE38F3031235FE17F4031248
:1058E00035FE5F8B041235FEB28B041235FE1E8C22
:1058F000041235FE868C041235FE88EF031235FE45
:10590000B2EF031235FE87F0031235FE7BF103126E
:1059100035FEAC92031235FE6993031235FEA49353
:10592000031235FECC93031235FE2E94031235FE7E
:105930007A94031235FED394031235FE6495031254
:1059400035FE6696031235FE2398031235FEA598A0
:10595000031235FE0A99031235FE2199031235FE12
:10596000319A031235FE6F9A031235FE6CEA031268
:1059700035FEBCEA031235FE56EB031235FE8EEB04
:10598000031235FE59EC031235FEB9EC031235FE55
:10599000B6C6021235FE1BCA021235FE97CB0212A2
:1059A00035FEEECB021235FE0BCC021235FE89CC51
:1059B000021235FE14CE021235FEF8CE021235FE6A
:1059C000B6D2021235FE86D3021235FEC8F8031293
:1059D00035FE1CF9031235FEA1F9031235FE9FFABC
:1059E000031235FED7FC031235FE03FD031235FE0C
:1059F00020FD031235FE4FFD031235FE77FD031225
:105A000035FEFCFD031235FEA9E7031235FEEEE775
:105A1000031235FE0BE8031235FE92E8031235FE41
:105A20003EE9031235FE33EA031235FE6D9404128B
:105A300035FEB394041235FED57F00FFFFFFFFFF54
:105A4000FFFFFFFFC082C083E9900B05F0025CC836
:105A500074F7123A3AE99002DFF07C177D037AFF7F
:105A60007BFF124C9D9002E074FFF0A3F0A3E4F0E2
:105A7000A3F07905124C259002DFE0F9124B4D7A24
:105A8000BB7B4C124E7D0269D674F4123A3A8A0AF4
:105A90008B0BEB548060309002DFE0F91254478AA0
:105AA0000C8B0DAE0CAF0DEE4F60138E828F83E02A
:105AB00064B07003124C3DEEFAEFFB125435AA0AA3
:105AC000E50B6480FB80047A007B00025C9774F233
:105AD000123A3A74FC1239CAEAFEEBFF7412123A17
:105AE00016126EBDEE4F7003025B717402123A160D
:105AF000EEF0A3EF125ED2ECF0A3ED125ED2AA821A
:105B0000AB83124B47E9F50C706AE50A450B6064FC
:105B10008E828F83126EA3EE4F60567A067B001240
:105B2000549B8A0E8B0FA80EA90FE8497005750CBF
:105B300013804188828983E4125B7EEEF0A3EF122A
:105B40006ECEE50AF0A3E50BF09002E5125C05903D
:105B500002E57005126980801B12696E8003EAFC01
:105B6000EBFD8C828D83125C0570F38C828D8380BB
:105B7000E3750C02A90C74041239E00270BDF0A3A5
:105B8000126E74A32274F2123A3A890CE975F01776
:105B9000A4FEAFF09002E4E4F09002E2125C056033
:105BA0000A1254A19002E2E4F0A3F0EEFAEFFB1225
:105BB000549B8A0A8B0BEA450B602FEEFCEFFD79B4
:105BC000001254239002E2E50AF0A3E50BF07B00FB
:105BD0008008125BEFE4F0A3F00BEBC3950C40F2EE
:105BE000E50C9002E4F07900800279130270BDEBBD
:105BF00075F017A4F8A9F09002E2E028FAA3E039C2
:105C00008A82F58322126612EA4B2274F4123A3A1F
:105C1000740C123A16126E98FEE9FF750A00750BA5
:105C200000800CE50A2401F50AE50B3400F50BC3EE
:105C3000E50A9CE50B9D5032850A0C850B0D74031B
:105C4000780C1239B7EA250CF8EB350DF988828902
:105C500083A3A3A3A3A3A3126A55EE650C7003EF5D
:105C6000650D70BFE8FAE9FB80047A007B008027AD
:105C700074F4123A3A7900EAA2E0501B750A6A7588
:105C80000B81780A123C4D7C047D007A077B0B1255
:105C90004C1F74021239E07F04023B0CC082C083A7
:105CA0009002E5125CCF601C88828983A3A3E06A1E
:105CB0007003A3E06B8882898370E8A3A3A3A31277
:105CC000660E80047A007B00D083D0820235FB12FE
:105CD00071A3E8492274EE123A3A74FC1239CAEA06
:105CE000FEEBFF851A82851B83E4F0A3F0EE24020D
:105CF000126960EE2405126E7BEE2404F510EF129B
:105D00006287E024FE603924FC604624FE60522451
:105D1000FE605E24FE7003025DE824FE7003025EF6
:105D20004C24FE7003025E5B24FE7003025E6A2454
:105D3000FC7003025E7924FE7003025E88025EC579
:105D40009002FE7417F0A3E4125EDA1248C5025EF8
:105D5000C5851A82851B83AC82AD83124C43025EDB
:105D600095851A82851B83AC82AD83124C49025EF5
:105D700095850E0A850F0B7402123A16AC82AD831C
:105D8000850A82850B8312660E124B6B8A0E8B0F6F
:105D9000AC0EAD0FEC4D603BE4F50EF50F780E1236
:105DA0003C4D750EFE750F02780E123C4D750EFFC0
:105DB000750F02780E123C4D7408123A16123C64AC
:105DC00012731F1239E0E9F50E700B1266041248C7
:105DD000DD800F750E01850A82850B83125EC81265
:105DE0006980850E0A025E987402123A16AC82AD82
:105DF00083850E82850F831263D9603C850E828570
:105E00000F83A3A3123C647512FE7513027812125D
:105E10003C4D7512FF7513027812123C4D74081236
:105E20003A16123C6412731F1239E0E9F50B700B3D
:105E30001266041248E3800F750B01850E82850FF0
:105E400083125EC8126980850B0A804C851A828590
:105E50001B83AC82AD83124C4F803A851A82851B1E
:105E600083AC82AD83124C55802B851A82851B83AF
:105E7000AC82AD83124C5B801C851A82851B83AC7F
:105E800082AD83124C61800D851A82851B83AC82A2
:105E9000AD83124C67E9F50AE50A60298E828F838B
:105EA000A3E06414601F851082851183E09002FED8
:105EB000125ED212719F9002FF126980E50AA3124E
:105EC0005EDA1248BF02686F1271A3851A82851BC1
:105ED0008322F0851A82851B8322F07CFE7D028559
:105EE0000C82850D831266122274EE123A3A74FC0B
:105EF0001239CA8A0C8B0D8C108D11EA2405F50A13
:105F0000EB3400F50B7C157D0079007AFE7B0212E4
:105F10005423E50A2402F50EE50B126E7E851A82E3
:105F2000851B838582128583137812123C4D850A66
:105F300082850B83A3A3A3A31263D0123C4DE50A71
:105F40002405F512E50B3400F5137812123C4D854B
:105F50000E82850F83126725124B6574061239E095
:105F60008A128B13AE12AF13E50C2402F50CE50D6B
:105F7000126963EE4F70030260A780177402123A31
:105F80001612660E88828983EAF0A3EBF09002FE77
:105F9000E004F09002FEE0C3940540030260A7E431
:105FA000F512F5137812123C4D7512E7751302784D
:105FB00012123C4D7512E87513027812123C4D74A2
:105FC00006123A16123C647910EEFCEFFD127321B2
:105FD0001239E0E9705E850A82850B83A3A3A3A32F
:105FE000A3A3A3E0F89002E7E06870481263D01220
:105FF0003C4D7CE87D02E50A2408FAE50B3400FB01
:1060000012541D74021239E0E960298E828F83A335
:10601000A3A3A312660E9002FEE0F512740278129A
:106020001239B774FF2512F58274023513F583EA2D
:10603000F0A3EBF07402123A16858212858313786E
:1060400012123C4D7402123A16123C64850E82857F
:106050000F831266341239E08A128B13AE12AF131B
:106060009002FEE0F512751300740278121239B72F
:1060700074FE2512F874023513F988828983A312FD
:106080005C057003025F73E82403080808E9340024
:10609000F9EE4F6003025F7C8882898374FFF0A36E
:1060A000F09002FEE004F09002FEE0600A12660446
:1060B0001248D17900800B850A82850B831269779B
:1060C000790A02686F74EA123A3A74FE1239CA8C7D
:1060D000148D15EA2405F50EEB127309126EA775DF
:1060E0000A00750B00EA2402F512EB3400F5138563
:1060F0001A82851B8385820C85830D780C123C4D9A
:10610000850E82850F83A3A3A3A312629D123C4D2B
:10611000E50E2405F50CE50F126963780C123C4D71
:10612000850E82850F831262A1124B6574061239A7
:10613000E08A0C8B0DEA450D7003026242EA2404EA
:10614000F510EB126287126EA78A828B83A3A3A33A
:10615000E0F9851282851383126618600302624299
:10616000E4F516F5177816123C4D7516E77517020B
:106170007816123C4D7516E87517027816123C4DCC
:106180007406123A16123C647913AC0CAD0D8512EC
:10619000828513831273271239E0E9F50B6003023D
:1061A00062429002E7E0F8E50A7009E024029002FA
:1061B000FFF080149002FFE0FCE82402FAE43400CF
:1061C000FBEA6C7001EB707E850A82AA821263C7BB
:1061D00094141263BF506B851082851183E0C0E078
:1061E00074002A12627ED0E0F0050A8510828511C3
:1061F00083A3E0C0E0850A0C7400250C12627ED0F7
:10620000E0F0050A9002E712629D123C4D7CE87DA9
:1062100002850A0C7400250C1262911239E090027A
:10622000E7E0250AF50A74FF6E700374FF6F6012D1
:10623000EE24010EEF3400FFE50AC394145003026C
:1062400060EFE50A601312662285128285138312BD
:10625000660E1248D779008014E50B7003750B0A9F
:10626000851482851583EEF0A3EFF0A90B7402125A
:1062700039E07F0E023B0C850A0E7400250EF58274
:1062800074033400F583223400F511851082F58300
:1062900022FA74033400FB12540B740222126EDDD6
:1062A00022A3A31262A72212696EFDEEFAEFFB226F
:1062B00074EE123A3A74FE1239CA8C108D11EA2427
:1062C00005F50EEB126E7E750D009002FEE4F0F502
:1062D0000CEA2402F50AEB3400F50B80449002FE30
:1062E000E0FA9002E7E0F81263C794171263BF4028
:1062F0000D9002FEE0F87416C3989002E7F0126366
:10630000D0123C4D7CE87D0274FF2AFA74021262BE
:10631000941239E09002E7E0F89002FEE028F005E0
:106320000CE50E2416F582E50F126282E0F8E50C0A
:10633000C39850749002FEE0C39416506BE50CC3F2
:1063400033F8E433F9E50E28FEE50F39FF851A82AC
:10635000851B83AC82AD838E828F831263D97008D4
:10636000750D011269738050E4F512F5137812125D
:106370003C4D7512E77513027812123C4D7512E808
:106380007513027812123C4D7406123A16123C64D0
:106390007916850A82850B831273271239E0E9F595
:1063A0000D70030262DD80BB7CFE7D02850A828562
:1063B0000B8312660E1248E9A90D7402026871E996
:1063C0009400C365D03322EA28F8E43400F9E822C7
:1063D000E0F5127513007812221268668A128B1388
:1063E000AC12AD13EC4D2274EA123A3A74FC123935
:1063F000CA8A0E8B0F8C148D15EA2405F50CEB124E
:106400006963750A00750B00E50C2402F512E50DB1
:106410003400F5137402123A1685821085831178C0
:1064200010123C4D850C82850D83A3A3A3A3126E8D
:1064300083123C4DE50C2405F510E50D3400F511F3
:106440007810123C4D851282851383126969126699
:1064500008124B6574061239E08A108B11AE10AF2A
:1064600011E50E2402F510E50F3400F5118038888F
:1064700082898374FFF0050A12627774FFF0050ABF
:106480009002E7E0F50E750F00780E123C4D7CE8A7
:106490007D02850A0E7400250E1262911239E09079
:1064A00002E7E0250AF50AEE4F60278E828F83A36C
:1064B000A3A3E0F9851082851183126618EE2404E7
:1064C000126E7BE96027850E82850F831265FA12B2
:1064D0006980E50A70030265E012662285108285F4
:1064E000118312660E1248EF79000265F5E4F51685
:1064F000F5177816123C4D7516E7751702781612C7
:106500003C4D7516E87517027816123C4D7408124A
:106510003A16123C647911EEFCEFFD85108285116C
:10652000831273271239E0E9F50B709A850A82AA63
:1065300082EA9002E77009E024049002FFF08025CF
:10654000E0F89002FFE0F516E82404FCE43400FDD6
:10655000EC65167001ED70811263C794121263BF6F
:1065600040030264D9850E82850F83E0C0E0740089
:106570002A12627ED0E0F0050A850E82850F83A381
:10658000E0C0E0126277D0E012663D85820E85831E
:106590000F780E123C4D7404123A16123C648512A8
:1065A000828513831266341239E08A0E8B0FAE0E89
:1065B000AF0F850A0E7400250EF874033400F9EE4F
:1065C0004F700302646F851A82851B83E08882897D
:1065D0008312663DA3E0C0E0126277D0E002647DE2
:1065E000E50B7003750B0A850C82850D831265FA25
:1065F000126980A90B740402626F1271A385148260
:10660000851583227CFE7D02850C82850D831266B2
:106610001222E0FAA3E0FB22126612124B53E9F5B4
:106620000B229002FFE0F5F0E50A849002FEF07C78
:10663000FE7D02221262A7124B71740422F0050A39
:10664000851A82851B832274EC123A3A74FE123941
:10665000CA8A0A8B0B8C108D11EA2405FEEB3400DC
:10666000FF126850EE2418126E7BEA450D7003028B
:1066700066F312683950291267188A128B13EA459B
:1066800013606B7912AC0CAD0D850A82850B8312F9
:10669000660E851282851383123A38E9F50C70581C
:1066A000E4F50CF50D780C123C4D8E828F83A3A37C
:1066B000E0F50C780C123C4DEE2403126960780C66
:1066C000123C4D8E828F83126725124C8B740612FA
:1066D00039E0E9F50C7021850E82850F83E0701F8B
:1066E000850A82850B8312660E1248F58011750C9F
:1066F0000E8009750C018004E50C60031269738536
:106700000E82850F83E0600479008002A90C740278
:106710001239E07F0C023B0C851A82851B831266BE
:1067200012124C792212696EFD850A82850B831242
:1067300066122274EE123A3A74FE1239CA8A0A8B31
:106740000B8C0E8D0FEA2405FEEB3400FF75100054
:10675000126850EA450D7003026817126839502C10
:106760001267188A108B11EA4511604A7912AC0C35
:10677000AD0D850A82850B8312660E851082851108
:1067800083123A38E9F510600302681A850A828597
:106790000B83126A55AA0CFB12682B70147AFF7BCC
:1067A000FF12682B606C88828983E50CF0A3E50DED
:1067B000F0750C00800775100E805F050C9002E4E8
:1067C000E0FAE50CC39A504AE50C75F017A4FAAB51
:1067D000F088828983A3A3E02AFAA3E03BFB8A82A4
:1067E0008B83126969EC4D70D2750C17750D0078AA
:1067F0000C123C4DEEFCEFFD12540B74021239E00A
:10680000EEFCEFFD850A82850B8312660E1248FBB3
:106810008014751009800375100112719B850E821A
:10682000850F83126980A9100263BA124C6D8A1217
:106830008B13A812A913E84922E50A2402F50AE5F8
:106840000B3400F50B8A828B83A3A3A3E0A2E5227D
:10685000851A82851B83AC82AD838E828F831268FA
:10686000668A0C8B0D22E0FAA3E0FB124B6B2274BC
:10687000041239E07F0A023B0C74EC123A3A8C1293
:106880008D13EA2405F50EEB126E7E751100EA24D5
:1068900002F50CEB126963850C82F58312660E1209
:1068A00073AD70030269557510008071850E828585
:1068B0000F83E06401704F8E828F83A3A3123C6428
:1068C0008E828F83A3A3A3A3E0F51475150078141B
:1068D000123C4DEE2405F514EF3400F51578141232
:1068E0003C4D126608124C8B74061239E0E9F51122
:1068F0006014850E82850F83E4F012719B851282ED
:106900008513831269807C177D007900EEFAEFFB16
:106910001254238E828F83E4F0A3F005109002E4DA
:10692000E0F8E510C398501EE51075F017A4F8A91B
:10693000F0850A82850B83A3A3127313126969EC95
:106940004D60030268AC850A82850B8374FFF0A357
:10695000F0E5117006126608124901A911026713C9
:10696000F50CEF3400F50D22A312696EFD22E0FC58
:10697000A3E0228E828F831271A3851082851183FA
:10698000E8F0A3E9F022C082C0839002E0E06A70E0
:1069900003A3E06B70067AE07B0280047A007B0040
:1069A000025CC874F7123A3A7F00EF75F003A4F85E
:1069B000A9F0EC28F8ED39F988828983E06A700340
:1069C000A3E06B7006E8FAE9FB800B0FEFC39402BB
:1069D00040D87A007B007F01023B0C74F6123A3AF1
:1069E000126F8C70067A007B008007A3A3A3A3120A
:1069F000660E02704D74F2123A3AE9FE740E123AC3
:106A000016126A557410123A16126EBD8C828D835E
:106A1000E06402703BA312719F88828983E0F50EC7
:106A2000A3E0F9A80E7402687003742969702175D7
:106A30000E02750F00780E123C4D780A123C4D780C
:106A40000C123C4DEEF9124CAF74061239E0800284
:106A500079010270BDE0F50CA3E0F50D2274E81297
:106A60003A3A74FB1239CAE9851A82851B83F08A87
:106A7000188B198C108D11741F123A16126EBD747A
:106A800021123A16126A557423123A16126EA7751D
:106A900012008C828D83A3A3A3E0A2E4502A741D6C
:106AA000123A1612671E8A828B83E5824583700331
:106AB000026B69790AAC10AD11AA18AB19123A38F9
:106AC000E9F5126003026B6C851082851183E06426
:106AD000026003026E22A312719F850A82850B83D6
:106AE000A3858214858315E5102406F50EE51112A1
:106AF0006E7E88828983E0FAA3E0F9EA2400F51625
:106B0000E439F5177816123CD70100002801283126
:106B10006B07000228086C0328786B0029326D018E
:106B2000295A6D0229016D0329326D0429C36D2292
:106B30006EEE4F703E850E82850F83126E98FAE9D5
:106B4000FB8A828B83E0850C82850D83126ED412C2
:106B50003C4D8A828B83A312696EFDAA0AAB0B128D
:106B6000540B74021239E0800375120EA9127405D9
:106B700002730175120B80F4EE4F70F7850C82855D
:106B80000D837401F0126EAD850A82850B83F07C53
:106B9000007D00851082851183A3A3A3A3E02401B7
:106BA000FAA3E03400FB124B6BEA4B60418A828B04
:106BB00083E02402F8850C82850D83E028F0EA2426
:106BC00004F8EB3400F988828983E0851482851506
:106BD00083126EE6126ED4123C4D8A828B83126948
:106BE00068E50A2403FAE50B3400FB026B5F850CB1
:106BF00082850D83E02404F07C047D007900AA14D2
:106C0000AB15125423026B6CEE4F6003026B7312D0
:106C10006EADFEA3E0FF850C82850D837404F0EE5B
:106C2000850A82850B83F0EF851482851583F074C5
:106C300003123A16AC82AD83EEFAEFFB126F7A7054
:106C400003026CDE8A828B83A3A3126EA3740112EB
:106C50003A168582108583117810123C4D74051206
:106C60003A16123C647CFF7DFF124B71740412399A
:106C7000E08B11EA45117033850E82850F83126E09
:106C800083123C4D850E82850F83A3123C647C02E7
:106C90007D007AB87B8212499D74041239E0E97054
:106CA0000A7401123A1674FFF0A3F08E828F83E00B
:106CB00064027034750E02750F00780E123C4D8E12
:106CC000828F83126968E50A2404FAE50B12629444
:106CD0001239E0850C82850D83E02402800974015D
:106CE000123A16EEF0A3EFF07401123A16126E94F7
:106CF000F07401123A16A3126E8CA3A3A3F0026BD8
:106D00006CEE4F6003026B73850E82850F831269F0
:106D100069AA18AB19124CA3850C82850D837402E5
:106D2000F0EA850A82850B83F0851482851583EB52
:106D300080CBEE4F6003026B73126EADF8A3E0F9E7
:106D4000850C82850D837402F0E8850A82850B83A9
:106D5000F0E985148285158380A3850E82850F83D3
:106D600012660E125405EAFC8C82A882C39EE49F30
:106D7000404BE86E7001EF70047C00801F851A8222
:106D8000851B83E0FAEE2AFAEF3400FBC3EA98EBA6
:106D900094005003E08004EECCC39CFCEC850C8294
:106DA000850D83F08C0C750D00780C123C4D850E12
:106DB00082850F83E02EFCA3E03F026B5A75120719
:106DC000026B6CEE4F6003026B73850E82850F833E
:106DD00012719F850C82850D837407F088828983E8
:106DE000126E8C126E74E0851482851583F0E8248F
:106DF00002FAE93400FB8A828B83126E8C126EC514
:106E0000126E94A3126ECE126E9DF0E82405F8E97E
:106E10003400F988828983126E9DA3126EE6A30264
:106E20006CFA741D123A16126F857003026B6912A8
:106E3000719F880E890FE8450F7003026B698E12EF
:106E40008F137812123C4D780C123C4D780A123C8C
:106E50004D7406123A16E0F9AC10AD11AA18AB1930
:106E6000850E82850F83123A3874061239E0E9F5EF
:106E700012026B6CF088828983A322F50EEF340036
:106E8000F50F22E0F510751100781022E0850A82D6
:106E9000850B8322126EED221271A3E822126EED91
:106EA000A3A322A3A3A3A3E0FEA3E0FF22850E8257
:106EB000850F83E0F8A3E0F5838882E022E0F50AFD
:106EC000A3E0F50B22A3A3F08A828B83A322125B9B
:106ED00080A3A322F08A828B83126EDD22E0F50C60
:106EE000750D00780C22126E74126EED22E0850A88
:106EF00082850B83A3A32274EE123A3A74FE1239F0
:106F0000CA8A0C8B0DECFAEDFB7414123A16E0F5FC
:106F100012A3E0F5137416123A16E0FE7418123A32
:106F200016E0F510A3E0F511851A82851B83AC826B
:106F3000AD83126F7A603E851A82851B83126F853E
:106F4000602FA3A3126EBDE50A450B6024781012D2
:106F50003C4D7812123C4DEEF9AC0EAD0FAA0CABC5
:106F60000D850A82850B83123A3874041239E08049
:106F700006790E800279010263BA124B6B8A0E8B7E
:106F80000FEA450F22126612126F8C22124C378ABA
:106F9000828B83E58245832274F6123A3A74FE129C
:106FA00039CA740C123A16126E98851A82851B83A0
:106FB000F07401123A16E9F0E4F50AF50B780A12BA
:106FC0003C4D750A02780A123C4D7404123A16853B
:106FD000820A85830B780A123C4D124C8B74061280
:106FE00039E074021239E0806474F7123A3AEAFE2A
:106FF000EBFF890A7C177D03124CA3EA5402600B55
:10700000A90AEEFAEFFB124B5F800279010269D602
:1070100074F6123A3A74FF6A700374FF6B701C7B4B
:1070200000EB75F003A4F8A9F0EC28F8ED39F9129B
:1070300070520BEBC39402501480E6124C738A0A10
:107040008B0BA80AA90BE84960031270527F020259
:107050003B0C8882898374FF125B7EE4F02274F615
:10706000123A3A124C738A828B83E582458360061A
:10707000A3A3E0FA80027A007B0080D174F2123A76
:107080003A8A0A8B0BECFEEDFF740E123A16E0F50D
:107090000C1270C2701CEEFCEFFD7AFF7BFF1270C9
:1070A000C270047911801688828983E50AF0A3E50D
:1070B0000BF088828983A3A3E50CF079007F060298
:1070C0003B0C124C738A0E8B0FA80EA90FE84922B5
:1070D00074EE123A3AEAFEEBFF8C0A8D0B890E74BD
:1070E00012123A1612719F7414123A1612696974C8
:1070F00016123A1612660E750F00EC4D60030271FF
:10710000937402650E600302718E8882898312690E
:107110006EF9EC2400F510E439F511EAF4F8EBF41B
:10712000F9EC58F8E51159F9E849705DE50A2406CB
:10713000F8E50B3400F9880C890D8882F58312621A
:10714000A3124CA38A128B13E51065127004E5118B
:10715000651360427810123C4D850C82850D8312B8
:1071600062A3124CA974021239E0E9F50F70277876
:1071700010123C4D850A82850B83A3A31262A112D3
:107180004CC174021239E0800D750F808008750FB4
:107190000D8003750F0BA90F0268748E828F831206
:1071A00071A322E0F8A3E0F92274E8123A3A74E7F6
:1071B0001239CA851A82851B83EAF0A3EBF08C187A
:1071C0008D1989107431123A16E0F514A3E0F51503
:1071D0007433123A16E0F516A3E0F5177435123A37
:1071E00016E0F511750A00750B00E50B75F003A4A8
:1071F000F8A9F0851A82851B83127313E0F47003DB
:10720000A3E0F470030272F1EE2402F50EEF1273A4
:1072100009E070030272F185180C85190D780C12C3
:107220003C4DAC16AD17AA14AB15124C2B740212C0
:1072300039E08A0C8B0DEA450D70030272F1E4F51A
:1072400012F5137812123C4D7406123A168582120A
:107250008583137812123C4D7409123A16858212F6
:107260008583137812123C4D851482851583A3A360
:10727000A3A3123C647914AC0CAD0D8E828F8312E3
:1072800073271239E0E97069850C82850D83A3A309
:10729000A3A312719F7402123A16126980850E829E
:1072A000850F83E0A2E05018A9107402123A16ACC0
:1072B00082AD838E828F8312660E124B83E9420A5F
:1072C000850E82850F83E0A2E15026E511F50C784A
:1072D0000C123C51A9107403123A16AC82AD838E85
:1072E000828F8312660E124B7D74011239E0E942DF
:1072F0000A050BE50BC3940250030271EAA90A7454
:10730000191239E07F10023B0C3400F50F850E8214
:10731000F58322E028FEA3E039FF8E828F83227955
:1073200016850C82850D83126612124C8574082214
:1073300074F2123A3AEAFEEBFF890D7401650D60B2
:107340000E7402650D70637901124E9BE9705BEE5D
:10735000FAEFFB1273AD6047750C00800B7C177D54
:10736000007900125423050C9002E4E0F8E50CC308
:10737000985021E50C75F017A4F8A9F0850A8285CC
:107380000B83A3A3E028FAA3E039FB8A828B831244
:107390005CCF70C9850A82850B8374FFF0A3F07CF3
:1073A000177D03EEFAEFFB124C9D0270BD124C6D7F
:1073B0008A0A8B0BEA450B2274F2123A3A8A0A8B3C
:1073C0000BECFEEDFF740E123A16126A55900B0587
:1073D000E0F4603D7A097B0012542FEA4B60328A58
:1073E000828B8374B1F0A3E4126EC7A3126EC5A39F
:1073F000E50AF0A3E50B127414EEF0A3EF12741477
:10740000A3A3E50CF0A3E50DF0900B05E0F91254F1
:107410003B0270BDF08A828B83A3A3A3A3A322C0E7
:1074200082C083900280E0A2E250067A417B0B800A
:10743000047A007B001252977900D083D082023503
:10744000FB74F2123A3A74E01239CAEAFEEBFF8C8E
:107450000C8D0D742E123A16E0F50AA3E0F50B7CA4
:10746000107D007900851A82851B83AA82AB831266
:107470005423127EF4E849700302752F1278F4E069
:107480006E7003A3E06F600302752F90074E1279B0
:1074900004600302752F12763AFC74066C704F7408
:1074A00010123A1685820E85830F780E123C4D908D
:1074B000074DE0244BF50EA3E03400F50F780E12D3
:1074C0003C4D90074DE0242BFCA3E03400FD1279E5
:1074D000EE12525574041239E0E9705312760E120E
:1074E0003C4D7412123A16AC82AD8302759F12762F
:1074F00042603C127BB274116C60030275C1E0659E
:107500000A7004A3E0650B7021750E08750F0078F2
:107510000E123C4D12761A1239E0E96401700B121A
:10752000760E123C4D12762C8075793212530FEE86
:10753000FAEFFB124E8F8A0E8B0FA80EA90FE849A7
:1075400070030275FBE82421F50EE93400F50F8580
:107550000E82F583127F37EA4B70030275FB127EB1
:10756000DE650A7004A3E0650B60030275FB750A13
:1075700008750B00780A123C4D12761A1239E0E9B0
:1075800064017077850E82850F83E0FCA3E0FDEC3B
:10759000241AF582ED127EE4F50A780A123C4D7445
:1075A00002123A16AA82AB831279E81239E0EEFA97
:1075B000EFFB851A82851B83AC82AD83124D1B8045
:1075C00041E0650A7004A3E0650B600302752F7546
:1075D0000E08750F00780E123C4D12761A1239E023
:1075E000E96401600302752F12762CEC241AF582EF
:1075F000ED127EE4F50A750B00809FEEFAEFFB12A8
:107600004D21790174201239E07F06023B0C1253A0
:1076100015E9F50A750B00780A22EA2412FCEB340E
:1076200000FDAA0CAB0D12541D74022290074DE010
:10763000245B127A20FCA3E0FD2290074E127AE32D
:10764000E02290074DE0245B127A20FAA3E0FBEAE7
:107650004B2274F2123A3A890FECFEEDFF750E00E0
:107660008A828B83A385820C85830D8E828F83A370
:1076700085820A85830B127EF4E849705D7401658A
:107680000F7052EE2402FAEF3400FB1252618E8228
:107690008F83A3A3A3A3A37402123C688E828F835B
:1076A000A3A3A3A3E0F50E780E123C51E9F50E78E2
:1076B0000E123C51850A82850B83E0FD8E828F83FA
:1076C000E0FC850C82850D83127F377900124A9386
:1076D00074041239E079000278F11278F4127EF71E
:1076E000850C82850D83E0687003A3E069600579ED
:1076F000080278F11278FE6401700579070278F1CA
:10770000E50F14603124FE603A1470030277A2146E
:1077100070030278E41470030277AB1470030278EC
:107720000614700302781014700302785214700368
:107730000278930278ECEEFAEFFB125333E9F50E80
:107740000278EF750A00750C10750D00780C123C6C
:107750004D90074DE0243B127AC81239E090074D56
:10776000E02401127A12640470047403802D9007DF
:107770004DE0241BF50CA3E03400F50D780C123C11
:107780004D90074DE0242B127AEA1239E01252D9BB
:10779000E96003750A08127AD57405F0850A0E02AD
:1077A00078EFEEFAEFFB125339809212763A640CBE
:1077B00060030278EC90074DE0245D127F19700899
:1077C000127ECE245D127EFD90074DE0245D127680
:1077D0004870030278EC750A10750B00780A123CA9
:1077E0004D1279E41239E0125315E9C0E090074DCB
:1077F000E0245D127A12241A1279FFD0E0127AD4B2
:10780000740DF00278EFEEFAEFFB12533F02773D72
:1078100012763A640E60030278EC90074DE0245F24
:10782000127F19700A7A16127ED0245F127EFD90A4
:10783000074DE0245F1276486011750A10750B0041
:10784000780A123C4D1279E41239E0127AD5740F9D
:1078500080B012763A640F60030278EC750C0675FE
:107860000D00780C123C4DAC0AAD0B90074DE02496
:107870005F12790B127AC81239E0127BBD888289B7
:1078800083E054206057127BD66052127AD5741070
:10789000027802127F1370147A14127ED0246112BF
:1078A0007EFD127F137005750E08804390074DE032
:1078B00024611276486026750A10750B00780A124A
:1078C0003C4D1279E41239E09081E31238A0900720
:1078D0004DE0246112790B1279FF1238AC79001255
:1078E000530F800B8E828F83E0F980F3750E07A90A
:1078F0000E0276091278F822127AE3A3A3229007E7
:107900004DE0F8A3E0F5838882E022127A2024106B
:107910002274F6123A3A7E001252E5E9F860030248
:1079200079D11252D3127A312412127A12A2E05073
:107930002090074DE024181279FF127AD8A3E05462
:10794000036401700C90074DE02417127A12D2E004
:10795000F0127A16F8740268601D7403686005748A
:10796000046870177901127F2B124A99127A251236
:107970007AD47404F08066790280EB740168600543
:107980007405687058127AD57402F01279EE127A82
:10799000166401700B7C107D007900125423801E48
:1079A000750A108E0B780A123C4D127A312402FCB3
:1079B000A3E034001279E71239E0127A25F0791049
:1079C00090074DE0242BFAA3E03400FB12525B80B9
:1079D0000C74186870050E0E0E80027E08EEF97F9A
:1079E00002023B0CEEFCEFFD12540B7402221279E2
:1079F000F22290074DE02407FAA3E03400FB2212A4
:107A00007A0322127A0722F8A3E03400F9888289E7
:107A10008322127A202290074DE0241A127A202223
:107A2000127A07E02290074DE02417127A20D2E262
:107A30002290074DE0F8A3127BCF2274F6123A3A57
:107A400074F01239CA7E00750A108E0B780A123C47
:107A50004DEAFCEBFD90074DE0244B127AC8123939
:107A6000E0851A82851B8385820A85830B780A123A
:107A70003C4D90074DE0244B127AEA1239E0750A2A
:107A8000108E0B780A123C4D90074DE0243BFCA36E
:107A9000E03400FD7402123A16AA82AB8312541D20
:107AA00074021239E0E9640170121252DFE96004D5
:107AB0007E08800A127AD57406F080027E04EEF900
:107AC00074101239E00279DFFAA3E03400FB12549B
:107AD0000B740222F090074D127ADC22E0F8A31218
:107AE0007AE322E0F5838882A322FCA3E03400FD40
:107AF0001279F21252C174022274F6123A3AEAFC76
:107B0000EBFD90074DE0245D1276487003027BADDB
:107B100090074DE0F8A312763D640D6003027BAD43
:107B20008C828D83127EF7127BB2E8F0A3E9F075A8
:107B30000A08750B00780A123C4DEC24020C0CED7F
:107B40003400FDEA2412FAEB3400FB1279E8123912
:107B5000E0127BBD90074DE02401FAA3E03400FB66
:107B600088828983E05410602590074DE02418FC3A
:107B7000A3E03400FD8C828D83127EEAA3A3A3A32D
:107B8000E0541060098A828B83740EF0801B888217
:107B90008983E05420600D127BD660088A828B8333
:107BA000741080E7790012530F7900800279070280
:107BB00079DFEA2410F582EB3400F5832290074D3B
:107BC000127BCC2413F8A3E03400F922E0F8A312CE
:107BD00078F8A3A3E02290074DE02418127A03124C
:107BE0007BCC54202274F0123A3A1278FE600302E1
:107BF0007EC990074E127A37F8A3E0F990074DE05E
:107C00002418127F08127F3790074D127EEAE0F5A4
:107C10000CEA2405FEEB3400FFE82413F50AE934EE
:107C200000F50B7406650C707F850A82850B83E076
:107C3000F8A2E0500C8E828F83E0A2E05003027C19
:107C4000C3E8540260408E828F83E054026037752F
:107C50000C09124A09127F231252F77408650C604E
:107C600003027E66850A82850B83E054027003025C
:107C70007D948E828F83E054027003027D94127A89
:107C8000D57409027DC3E854047003027E7D8E82A0
:107C90008F83E054047003027E7D750C0B1249E55E
:107CA000127F2312530380B3E50C24F9601514707E
:107CB00003027D3C14609B147003027D681460DD38
:107CC000027DB590074DE0245B127F197008127E8B
:107CD000CE245B127EFD90074DE0245B127A12FEEB
:107CE000A3E0FFEE4F7003027DBE7C107D007900A3
:107CF000EEFAEFFB125423125315EEFAEFFB125279
:107D00005B125429EE2410F582EF3400F583EAF07B
:107D1000A3EBF07908EE2412FAEF3400FB12525B69
:107D2000125315EE241AF582EF3400F583E9F0EED4
:107D3000FCEFFD127F2B1252EB027DBE12764270D9
:107D400003027C64EA2412F50CEB3400F50D780C88
:107D5000123C4D127EDEFCA3E0FD127F2B1252F18D
:107D600074021239E0027C64750D011249FDE9F5D7
:107D70000C7401650C7005750D008003750C00A96D
:107D80000D124A038A0E8B0FAC0EAD0FA90C127F99
:107D90002B1252FD850A82850B83E0540470030286
:107DA0007E7D8E828F83E054047003027E7D127A82
:107DB000D5740B800E7407650C6003027C5B127A2D
:107DC000D57408F090074DE0F8A312763DF87407DB
:107DD0006860177408686012740968600D740A6836
:107DE0006008740B686003027EC9127F2B124E8FED
:107DF0008A0A8B0BA80AA90BE8497003027EABE83C
:107E0000240BF582E93400F583127EF7880E890F82
:107E1000E4F510F511E9C313F9E813F8880A890BA2
:107E2000E4F50CF50D780E790A1237BD027EB3E841
:107E3000541060128E828F83E0541060098A828B06
:107E400083740E027DC3E8542060128E828F83E01B
:107E5000542060098A828B837410027DC38A828BCE
:107E6000837412027DC37409650C7008127AD5748C
:107E70000A027DC3740A650C7003027D9490074D5D
:107E8000E02401F8A3E03400F9E8FAE9FB850A826E
:107E9000850B83E0F8540860968E828F83E0540847
:107EA000608D8A828B83740C027DC39081A3780ECF
:107EB000123882780E123C497A027B00900753E018
:107EC000F91254D774041239E07F08023B0C7A1B74
:107ED0007B0012549B8A0A8B0B90074DE022EA2408
:107EE00010F582EB3400F583E022E0FCA3E0F5839B
:107EF0008C82A32290074DE0F8A3E0F922127F08BC
:107F0000E50AF0A3E50BF022FAA3E03400FB8A8235
:107F10008B832290074DE02461127A20F8A3E0F9C8
:107F2000E849228A0E8B0FAC0EAD0F90074D127AE6
:107F3000DCA3A3127F3722E0FAA3E0FB22C082C0B9
:107F40008390076DE4F0900767F0A3F0D083D082B0
:107F50000235FBC082C083E990076D80EE74F61293
:107F60003A3AE9FB9082BAE0F8EBC398400479030F
:107F70008030750A01750B00EB780A1239B7AC0A2C
:107F8000AD0BEA7011ECF4F8EDF4F9900767E058E6
:107F9000F0A3E0598009900767E04CF0A3E04DF0B2
:107FA00079007F02023B0C74F4123A3A90076DE0BC
:107FB000601E900767E0F8A3E0F9E8497012E5A8B1
:107FC000FEC2AF1254F5EEA2E7A2E792AF125861DB
:107FD0007F04023B0CC082C0838A828B838001A312
:107FE000E070FCE582C39AFAE5839BFBD083D082E4
:107FF0000235FB0235FBFFFF851C87C2AF0235FB54
:10800000C082C0839061907404F0A37448F0A3749C
:1080100002F09061807440F09061BC7403F0906154
:10802000877419F0906265741BF090619C740DF078
:1080300090619A7433F0A37455F09061A0743AF093
:1080400090055BE064017009C2919003C57467807C
:10805000059003C57461F0905A3EE493906186F0F8
:10806000905A40E493F46027E493540FF8906185AC
:10807000E0686012E5C654804449F5C6E59E547F29
:10808000644970F8E8F053C680E59E547F70FA7931
:10809000051251EF028242C082C083E9540FF99069
:1080A0006185E0696012E5C654804449F5C6E59EE5
:1080B000547F644970F8E9F053C680E59E547F70A0
:1080C000FA028242C082C083E5A8F853A87E90617C
:1080D00081E4F0A3F0A3F0C2BA539AFEC289759B63
:1080E00000C2C275E90075910075BF0075A91175D0
:1080F000B905906181F0A374C0F0A3E4F0D2BA4353
:108100009A0174805842A8028242C082C08374F8E7
:108110001239CA9003C3E0F8A3E0F9E849700302FA
:1081200082389003C3E0544060237908851A828521
:108130001B83AA82AB83125057851A82851B83AAA0
:1081400082AB83124D2D9003C3E054BFF0E0548006
:108150006010790C7A7F7B051250579003C3E0546E
:108160007FF0E0A2E0503190619A7433F0A374552F
:10817000F09061A0743AF090055BE064017009C270
:10818000919003C5746780059003C57461F0124D2A
:10819000339003C3E054FEF0E05402603190619AE2
:1081A000743FF0A3745AF09061A0747FF090055B67
:1081B000E064017009D2919003C574718005900349
:1081C000C5746AF0124D339003C3E054FDF0E054DF
:1081D000046013905A3CE493906186F0124D3990FC
:1081E00003C3E054FBF0E054086013905A3DE4935D
:1081F000906186F0124D399003C3E054F7F0E054DB
:10820000106013905A3EE493906186F0124D3990BD
:1082100003C3E054EFF0E05420600A124D3990039C
:10822000C3E054DFF0A3E05401600D124F7F124D04
:108230003F9003C4E054FEF074081239E08003F06C
:10824000A3F0D083D0820235FB74EC123A3A74F476
:108250001239CA851A82851B83AC82AD83758382ED
:1082600075821774041238DD905A3C93F46003024F
:1082700083D6907808E0C3940250030283B6740456
:10828000123A16AC82AD8375838175822A74081206
:1082900038DD851A82851B838582148583157404D5
:1082A000123A16AC82AD837510FF7511FF7FFF7E09
:1082B00000750E48750F78801574086E7003028380
:1082C0004974096E7003028349740A6E607B850EDF
:1082D00082850F83780A1238828C828D83A90BE500
:1082E0000CC9F888127418780A123785E512450A05
:1082F000F8C3E098A3E099850E82850F83780A126F
:10830000388240188C828D837418780A123785E57C
:1083100012450AF8E0C398F8A3E0801C7418780AA4
:10832000123785E512450AFAE9FB8C828D83E0F865
:10833000A3E0F9EAC398F8EB99F9C3E89510E99539
:1083400011500688108911EEFF0EE50E2404F50E7B
:10835000E50F3400F50FEEC3941350030282B97495
:10836000FF6510700474FF651160238F0A74027832
:108370000A1239B77448250AF5827478350BF583EB
:10838000780A123882851482851583E50AF0EC2478
:10839000020C0CED3400FD851482851583A38582C3
:1083A00014858315740C123A16E5826C7003E5830C
:1083B0006D60030282A7750A01750B00780A123CF2
:1083C0004D7402123A16AC82AD837A8F7B16125727
:1083D000FB74021239E0740C1239E07F0C023B0C82
:1083E000C082C0839061AE7468F0A3746AF090623A
:1083F0004574FBF0A304F053F4FD43FE0290055BCB
:108400007401F09061A0E0643A90619A7023743333
:10841000F0A37455F09061A0743AF0740164017097
:1084200009C2919003C5746780289003C574618068
:1084300021743FF0A3745AF09061A0747FF074012E
:1084400064017009D2919003C5747180059003C5D1
:10845000746A0282417F04023B0CC082C083900593
:108460000DE06401700A900512E06004790C80024E
:108470007900028242C082C08375E1F1900510E06C
:1084800060551460081460591460518059124F915E
:10849000900506E0F97A077B051251719081AB12C5
:1084A00038A01251A790819F1238A012517D9005DB
:1084B00011E0F912518979011251E3900504E02489
:1084C00016F8A3E03400F98882898374A9F0A374B4
:1084D0004FF07900028242124F9780B4124F9D8074
:1084E000AF124FA380AA791280EA74F4123A3A7557
:1084F000D90D9004F5E0A2E0E4331313F8900506DB
:10850000E0C4333354C0484401F5D9780479058870
:10851000828983A3A3A3E0F5D988828983A3A88253
:10852000A983E8640A7003E9640570E378F57904C7
:1085300088828983A3E0F5D988828983A3A882A948
:1085400083E864FB7003E9640470E575E1959004C9
:10855000F5E0F97AF67B04125177900B27743DF021
:10856000A3744FF0A3749FF0A37450F0A3749FF012
:10857000A37450F0A3749FF0A37450F0A37443F05D
:10858000A3744FF0A3749FF0A37450F0A3745BF036
:10859000A3744FF0900B35749FF0A37450F0A37444
:1085A0009FF0A37450F0A3749FF0A37450F0A374D1
:1085B0009FF0A37450F0A3749FF0A37450F0A374C1
:1085C0009FF0A37450F0900504E0F8A3E0F58388D1
:1085D00082A3A3780A1238829081BF780A1237D01A
:1085E00090823B780A123836900504E0240EF8A3F6
:1085F000E03400F988828983780A12389190050462
:10860000E02414F8A3E03400F9888289837413F01D
:108610009003C17402F0028455C082C08390051695
:10862000E02407F5D9900506E0C4333354C0F5D9EA
:108630007804790588828983A3A3A3E0F5D9888289
:108640008983A3A882A983E8640A7003E96405709A
:10865000E3900516E0601F78047905FAE82413F525
:1086600082E93400F583E0F5D988828983A3A88262
:10867000A9831AEA70E6900536E02407F5D990053B
:1086800006E0C4333354C04404F5D978047905882E
:10869000828983A3A3A3E0F5D988828983A3A882D2
:1086A000A983E8640A7003E9640570E3900536E085
:1086B000601F78047905FAE82433F582E93400F57F
:1086C00083E0F5D988828983A3A882A9831AEA70F6
:1086D000E675E195900B277449F0A3744FF0A374ED
:1086E0009FF0A37450F0A3749FF0A37450F0A37490
:1086F0009FF0A37450F0A37443F0A3744FF0A374DD
:108700009FF0A37450F0A3745BF0A3744FF0900B30
:1087100035749FF0A37450F0A3749FF0A37450F0CD
:10872000A3749FF0A37450F0A3749FF0A37450F04F
:10873000A3749FF0A37450F0A3749FF0A37450F03F
:108740009081E31238A0900504E0240EF8A3E034F1
:1087500000F9888289831238AC900504E02414F86B
:10876000A3E03400F9888289837412F09003C17405
:1087700001028241C082C083900516E02407F5D92A
:10878000900506E0C4333354C04402F5D978047927
:108790000588828983A3A3A3E0F5D988828983A36E
:1087A000A882A983E8640A7003E9640570E3900570
:1087B00016E0601F78047905FAE82413F582E9349D
:1087C00000F583E0F5D988828983A3A882A9831A5A
:1087D000EA70E675E195900B277455F0A3744FF09D
:1087E000A37455F0A3744FF0A37455F0A3744FF025
:1087F000A37455F0A3744FF0A37455F0A3744FF015
:10880000A37455F0A3744FF0A3745BF0A3744FF0FE
:10881000900B35749FF0A37450F0A3749FF0A37471
:1088200050F0A3749FF0A37450F0A3749FF0A3744E
:1088300050F0A3749FF0A37450F0A3749FF0A3743E
:1088400050F09081E31238A0900504E0240EF8A3C4
:10885000E03400F9888289831238AC900504E02462
:1088600014F8A3E03400F9888289837414F090032B
:10887000C17404028241C082C083900516E02407BF
:10888000F5D9900506E0C4333354C04406F5D978D1
:1088900004790588828983A3A3A3E0F5D988828916
:1088A00083A3A882A983E8640A7003E9640570E3DE
:1088B000900516E0601F78047905FAE82413F58224
:1088C000E93400F583E0F5D988828983A3A882A9D9
:1088D000831AEA70E6900536E02407F5D99005067C
:1088E000E0C4333354C04404F5D978047905888250
:1088F0008983A3A3A3E0F5D988828983A3A882A949
:1089000083E8640A7003E9640570E3900536E0606B
:108910001F78047905FAE82433F582E93400F583F9
:10892000E0F5D988828983A3A882A9831AEA70E630
:1089300075E195900B27744FF0A3744FF0A3749FCB
:10894000F0A37450F0A3749FF0A37450F0A3749F2D
:10895000F0A37450F0A3749FF0A37450F0A3749F1D
:10896000F0A37450F0A3745BF0A3744FF0900B3538
:10897000749FF0A37450F0A3749FF0A37450F0A3FD
:10898000749FF0A37450F0A3749FF0A37450F0A3ED
:10899000749FF0A37450F0A3749FF0A37450F090F0
:1089A00081E31238A0900504E0240EF8A3E034001F
:1089B000F9888289831238AC900504E02414F8A366
:1089C000E03400F9888289837415F09003C1740340
:1089D000028241C082C083900504E0F8A3E0F583E1
:1089E0008882A3A3A3A3A3A3E402823F74F7123A4D
:1089F0003A9003EFE0F875F004A4C8AAF02AF974DD
:108A0000F128F8740339F9E82405FAE93400FB8AFF
:108A1000828B83E0FCA3E0FD88828983A3A3A3A3C8
:108A2000A3A3A3A3A3ECF0A3EDF088828983A3A35F
:108A3000A3A3A3A3A3E024FFF8A3E034FFF98A8251
:108A40008B83E8F0A3E9028C9174F7123A3AEAFEBC
:108A5000EBFF9061D0E06003028B2675D90E75D9CB
:108A60000375D904EE248CF582EF3400F583E5829A
:108A70002408F8E5833400F9E0F5D9A3E8658270AD
:108A800003E9658370F2EE2484F582EF3400F58308
:108A9000E5822404F8E5833400F9E0F5D9A3E8651C
:108AA000827003E9658370F275E1957908EE248C94
:108AB000FAEF3400FB12504B7904EE2484FAEF34C1
:108AC00000FB12504B7C00EEF8EFF9ECFAC3E49A8D
:108AD000FA95E0FBEE2AFAEF3BFBEA248BF582EBFA
:108AE0003400F583E0C0E0E824ABF582E93400F51A
:108AF00083D0E0F00C88828983A3A882A983ECC389
